:020000040800F2
:1000000000000120BD180008CD130008D31300081C
:10001000D9130008DF130008E513000800000000F2
:10002000000000000000000000000000EB130008CA
:10003000F913000800000000071400081514000858
:100040000D1900080D1900080D1900080D190008F8
:100050000D1900080D1900080D1900080D190008E8
:100060000D1900080D1900080D1900080D190008D8
:100070000D1900080D1900080D1900080D190008C8
:1000800021140008351400080D19000800000000B4
:100090000000000000000000000000000D19000832
:1000A0000D1900080D1900080D1900084914000861
:1000B0000D1900080D1900080D1900080D19000888
:1000C0000D1900080D1900080D1900080D19000878
:1000D0000D1900080D1900080D1900080000000096
:1000E0000D1900080D1900080D1900080000000086
:1000F0000000000000000000000000000D190008D2
:10010000000000000D1900080D1900080D19000865
:1001100000000000000000000000000000000000DF
:100120000D1900080D1900080D1900080D19000817
:100130000D19000800000000000000000000000091
:100140000000000000000000000000000D19000881
:100150000D1900080D1900080D1900080D190008E7
:100160000D1900080D190008000000000000000033
:10017000000000000000000000000000000000007F
:10018000000000000D190008000000000000000041
:040190000D1900083D
:1001980010B5054C237833B9044B13B10448AFF3B9
:1001A80000800123237010BD100000200000000013
:1001B8009C43000808B5034B1BB103490348AFF340
:1001C800008008BD00000000140000209C430008C7
:1001D80081F0004102E000BF83F0004330B54FEAF0
:1001E80041044FEA430594EA050F08BF90EA020F5D
:1001F8001FBF54EA000C55EA020C7FEA645C7FEAF0
:10020800655C00F0E2804FEA5454D4EB5555B8BF12
:100218006D420CDD2C4480EA020281EA030382EA83
:10022800000083EA010180EA020281EA0303362D15
:1002380088BF30BD11F0004F4FEA01314FF4801CE8
:100248004CEA113102D0404261EB410113F0004FFA
:100258004FEA03334CEA133302D0524263EB4303B1
:1002680094EA050F00F0A780A4F10104D5F1200E4F
:100278000DDB02FA0EFC22FA05F2801841F10001AA
:1002880003FA0EF2801843FA05F359410EE0A5F17E
:1002980020050EF1200E012A03FA0EFC28BF4CF0AF
:1002A800020C43FA05F3C01851EBE37101F0004565
:1002B80007D54FF0000EDCF1000C7EEB00006EEB72
:1002C8000101B1F5801F1BD3B1F5001F0CD34908FC
:1002D8005FEA30004FEA3C0C04F101044FEA445253
:1002E80012F5800F80F09A80BCF1004F08BF5FEADA
:1002F800500C50F1000041EB045141EA050130BDBA
:100308005FEA4C0C404141EB0101013C28BFB1F5CB
:10031800801FE9D291F0000F04BF01460020B1FA16
:1003280081F308BF2033A3F10B03B3F120020CDAE9
:100338000C3208DD02F1140CC2F10C0201FA0CF0C7
:1003480021FA02F10CE002F11402D8BFC2F1200C2C
:1003580001FA02F120FA0CFCDCBF41EA0C019040E2
:10036800E41AA2BF01EB0451294330BD6FEA04042B
:100378001F3C1CDA0C340EDC04F11404C4F1200216
:1003880020FA04F001FA02F340EA030021FA04F328
:1003980045EA030130BDC4F10C04C4F1200220FA7F
:1003A80002F001FA04F340EA0300294630BD21FABD
:1003B80004F0294630BD94F0000F83F4801306BF83
:1003C80081F480110134013D4EE77FEA645C18BF77
:1003D8007FEA655C29D094EA050F08BF90EA020F0E
:1003E80005D054EA000C04BF1946104630BD91EA06
:1003F800030F1EBF0021002030BD5FEA545C05D109
:100408004000494128BF41F0004130BD14F5800447
:100418003CBF01F5801130BD01F0004545F0FE41BB
:1004280041F470014FF0000030BD7FEA645C1ABFF0
:10043800194610467FEA655C1CBF0B46024650EA27
:10044800013406BF52EA033591EA030F41F4002153
:1004580030BD00BF90F0000F04BF0021704730B5D9
:100468004FF4806404F132044FF000054FF00001AE
:1004780050E700BF90F0000F04BF0021704730B56F
:100488004FF4806404F1320410F0004548BF404244
:100498004FF000013EE700BF42004FEAE2014FEA99
:1004A80031014FEA02701FBF12F07F4393F07F4F74
:1004B80081F06051704732F07F4208BF704793F077
:1004C8007F4F04BF41F40021704730B54FF460748A
:1004D80001F0004521F000411CE700BF50EA01028D
:1004E80008BF704730B54FF000050AE050EA010236
:1004F80008BF704730B511F0004502D5404261EBA6
:1005080041014FF4806404F132045FEA915C3FF4E6
:10051800D8AE4FF003025FEADC0C18BF03325FEA83
:10052800DC0C18BF033202EBDC02C2F1200300FA34
:1005380003FC20FA02F001FA03FE40EA0E0021FA59
:1005480002F11444BDE600BF70B54FF0FF0C4CF447
:10055800E06C1CEA11541DBF1CEA135594EA0C0FF9
:1005680095EA0C0F00F0DEF82C4481EA030621EA34
:100578004C5123EA4C5350EA013518BF52EA03356F
:1005880041F4801143F4801338D0A0FB02CE4FF021
:100598000005E1FB02E506F00042E0FB03E54FF051
:1005A8000006E1FB03569CF0000F18BF4EF0010E49
:1005B800A4F1FF04B6F5007F64F5407404D25FEA45
:1005C8004E0E6D4146EB060642EAC62141EA5551F8
:1005D8004FEAC52040EA5E504FEACE2EB4F1FD0C3A
:1005E80088BFBCF5E06F1ED8BEF1004F08BF5FEAB8
:1005F800500E50F1000041EB045170BD06F000466A
:1006080046EA010140EA020081EA0301B4EB5C0416
:10061800C2BFD4EB0C0541EA045170BD41F480110E
:100628004FF0000E013C00F3AB8014F1360FDEBF33
:10063800002001F0004170BDC4F10004203C35DA0F
:100648000C341BDC04F11404C4F1200500FA05F392
:1006580020FA04F001FA05F240EA020001F0004233
:1006680021F0004110EBD37021FA04F642EB0601A9
:100678005EEA430E08BF20EAD37070BDC4F10C04D3
:10068800C4F1200500FA04F320FA05F001FA04F297
:1006980040EA020001F0004110EBD37041F1000183
:1006A8005EEA430E08BF20EAD37070BDC4F120058E
:1006B80000FA05F24EEA020E20FA04F301FA05F2F6
:1006C80043EA020321FA04F001F0004121FA04F29E
:1006D80020EA020000EBD3705EEA430E08BF20EA6E
:1006E800D37070BD94F0000F0FD101F000464000A8
:1006F80041EB010111F4801F08BF013CF7D041EA2A
:10070800060195F0000F18BF704703F0004652002D
:1007180043EB030313F4801F08BF013DF7D043EAFE
:100728000603704794EA0C0F0CEA135518BF95EAB4
:100738000C0F0CD050EA410618BF52EA4306D1D13B
:1007480081EA030101F000414FF0000070BD50EA5A
:10075800410606BF1046194652EA430619D094EAE4
:100768000C0F02D150EA013613D195EA0C0F05D1CE
:1007780052EA03361CBF104619460AD181EA030122
:1007880001F0004141F0FE4141F470014FF00000DA
:1007980070BD41F0FE4141F4780170BD70B54FF075
:1007A800FF0C4CF4E06C1CEA11541DBF1CEA1355F5
:1007B80094EA0C0F95EA0C0F00F0A7F8A4EB0504D7
:1007C80081EA030E52EA03354FEA013100F08880CE
:1007D8004FEA03334FF0805545EA131343EA126397
:1007E8004FEA022245EA111545EA10654FEA00264C
:1007F8000EF000419D4208BF964244F1FD0404F505
:10080800407402D25B084FEA3202B61A65EB030560
:100818005B084FEA32024FF480104FF4002CB6EB1D
:10082800020E75EB030E22BFB61A754640EA0C009D
:100838005B084FEA3202B6EB020E75EB030E22BFDD
:10084800B61A754640EA5C005B084FEA3202B6EB1E
:10085800020E75EB030E22BFB61A754640EA9C00DD
:100868005B084FEA3202B6EB020E75EB030E22BFAD
:10087800B61A754640EADC0055EA060E18D04FEA6B
:10088800051545EA16754FEA06164FEAC30343EA0B
:1008980052734FEAC2025FEA1C1CC0D111F4801FD8
:1008A8000BD141EA00014FF000004FF0004CB6E7D1
:1008B80011F4801F04BF01430020B4F1FD0C88BF70
:1008C800BCF5E06F3FF6AFAEB5EB030C04BFB6EB7B
:1008D800020C5FEA500C50F1000041EB045170BD6E
:1008E8000EF0004E4EEA113114EB5C04C2BFD4EB9B
:1008F8000C0541EA045170BD41F480114FF0000E1F
:10090800013C90E645EA060E8DE60CEA135594EA9A
:100918000C0F08BF95EA0C0F3FF43BAF94EA0C0F9D
:100928000AD150EA01347FF434AF95EA0C0F7FF412
:1009380025AF104619462CE795EA0C0F06D152EA66
:1009480003353FF4FDAE1046194622E750EA41064A
:1009580018BF52EA43067FF4C5AE50EA41047FF45B
:100968000DAF52EA43057FF4EBAE12E74A0011D20D
:1009780012F5001211D20DD56FF47873B3EB6252F1
:100988000ED44FEAC12343F0004343EA505323FAFD
:1009980002F070474FF00000704750EA013002D172
:1009A8004FF0FF3070474FF00000704753B94AB915
:1009B800002908BF00281CBF4FF0FF314FF0FF305F
:1009C80000F070B9ADF1080C6DE904CE00F006F83E
:1009D800DDF804E0DDE9022304B070472DE9F047B3
:1009E800089E0D4604460F46002B4AD18A4294467B
:1009F80065D9B2FA82F343B102FA03FCC3F12002CB
:100A08009F4020FA02F217439C404FEA1C4E1FFAFF
:100A18008CF5B7FBFEF1220C0EFB117742EA074278
:100A280001FB05F090420AD91CEB020201F1FF37E5
:100A380080F01C81904240F2198102396244121AF6
:100A4800A4B2B2FBFEF00EFB102244EA024400FB03
:100A580005F5A5420AD91CEB040400F1FF3280F029
:100A68000781A54240F204816444023840EA01400B
:100A7800641B00211EB1DC400023C6E90043BDE829
:100A8800F0878B4208D9002E00F0ED800021C6E9DE
:100A980000050846BDE8F087B3FA83F1002949D17B
:100AA800AB4202D3824200F2F880841A65EB03025B
:100AB80001201746002EE2D0C6E90047DFE702B959
:100AC800FFDEB2FA82F3002B40F090808A1A4FEAD8
:100AD8001C471FFA8CFE0121B2FBF7F507FB152016
:100AE800220C42EA00420EFB05F0904208D91CEBAA
:100AF800020205F1FF3802D2904200F2CB8045464F
:100B0800121AA4B2B2FBF7F007FB102244EA02441F
:100B18000EFB00FEA64508D91CEB040400F1FF32C9
:100B280002D2A64500F2BB801046A4EB0E0440EAB0
:100B380005409FE7C1F120078B4022FA07FC4CEAE9
:100B4800030C05FA01F420FA07F3FD404FEA1C49AB
:100B58002343B5FBF9F81FFA8CFE09FB18551C0C4A
:100B680044EA054408FB0EF5A54202FA01F200FA30
:100B780001F00BD91CEB040408F1FF3A80F08880DF
:100B8800A54240F28580A8F102086444641B9DB226
:100B9800B4FBF9F309FB134445EA044403FB0EFED6
:100BA800A64508D91CEB040403F1FF356CD2A64511
:100BB8006AD9023B644443EA0843A3FB0295A4EBC9
:100BC8000E04AC42C846AE4656D353D056B1B0EB2D
:100BD800080264EB0E0404FA07F7CA40CC40174336
:100BE800C6E9007418460021BDE8F087C3F120016A
:100BF80002FA03FC20FA01F225FA01F19D402A438A
:100C08004FEA1C471FFA8CFEB1FBF7F007FB1015E3
:100C1800110C41EA054100FB0EF58D4204FA03F47C
:100C280008D91CEB010100F1FF382FD28D422DD9D4
:100C380002386144491B92B2B1FBF7F507FB151165
:100C480042EA014205FB0EF1914208D91CEB02026F
:100C580005F1FF3816D2914214D9023D6244521A66
:100C680045EA004138E73146304608E73946E6E6C6
:100C78001046FBE64845A9D2B9EB020865EB0C0E15
:100C8800013BA3E74546EAE72B4694E74046D1E710
:100C9800D0467BE7023D624432E708460AE76444EF
:100CA800023842E7704700BF80B500AF0221034811
:100CB80001F01CFC0346184680BD00BF000402403A
:100CC80080B500AF0121034801F010FC0346184627
:100CD80080BD00BF0004024080B500AF4FF48051D2
:100CE8000A4801F003FC0346002B06D101224FF409
:100CF8000051074801F012FC05E000224FF40051B2
:100D0800034801F00BFC00BF80BD00BF000002409B
:100D18000004024080B500AFFFF7D2FF03461A4631
:100D2800184B1A70FFF7C0FF03461A46164B1A7085
:100D3800144B1B78012B07D1134B1B78012B03D1C4
:100D48005F2000F023F81AE00E4B1B78012B07D127
:100D58000D4B1B78002B03D15F2000F06BF80EE0E1
:100D6800084B1B78002B07D1074B1B78012B03D1AD
:100D78005F2000F035F802E000F086F800BF00BF01
:100D880080BD00BF2C0000202D00002080B582B05F
:100D980000AF0346FB714FF08042FB7993634FF03D
:100DA8008042FB795363012204210B4801F0B6FB12
:100DB80000220821084801F0B1FB01221021064851
:100DC80001F0ACFB00220821044801F0A7FB00BF9A
:100DD8000837BD4680BD00BF000002400004024045
:100DE80080B582B000AF0346FB714FF08042FB79BB
:100DF80053634FF08042FB799363002204210B4830
:100E080001F08CFB00220821084801F087FB012231
:100E18001021064801F082FB00220821044801F055
:100E28007DFB00BF0837BD4680BD00BF0000024003
:100E38000004024080B582B000AF0346FB714FF05A
:100E48008042FB7953634FF08042FB799363012220
:100E580004210B4801F062FB00220821084801F038
:100E68005DFB00221021064801F058FB00220821F2
:100E7800044801F053FB00BF0837BD4680BD00BFE2
:100E8800000002400004024080B500AF00220421A7
:100E9800094801F043FB00220821074801F03EFB06
:100EA80000221021044801F039FB002208210348E0
:100EB80001F034FB00BF80BD000002400004024086
:100EC80080B500AF01224FF40051024801F026FB23
:100ED80000BF80BD0008024080B582B000AF7860D6
:100EE8007B681B7F012B40F0BC80634B1B78002B79
:100EF8001AD10021786802F049FD03465F4A136061
:100F08005D4B01221A707B681B681A6A7B681B6834
:100F180022F00A021A627B681B681A6A7B681B68DF
:100F280042F002021A629CE0534B1B78012B40F0FE
:100F380098800021786802F029FD0346504A136022
:100F48007B681B6800225A624D4B1A684B4B1B6822
:100F58009A4207D94A4B1A68484B1B68D31A494A20
:100F680013600FE0454B1A68454B1B689A4209D934
:100F7800434B1A68414B1B68D31A03F57F43FF3371
:100F8800404A13603F4B1B681846FFF763FA38A3C3
:100F9800D3E90023FFF7D8FA02460B461046194654
:100FA8004FF000024FF08043FFF7F8FB02460B4674
:100FB80010461946FFF7DAFC0346DAB2324B1A70CC
:100FC800314B1B781D2B1DD82F4B1B78082B19D99B
:100FD8002D4B1B781A4613469B0013449B0003F2C3
:100FE8004C432A4A82FB0312D210DB17D31ADAB217
:100FF800274B1A70264B1B781846FFF7C7FEFFF7DA
:101008005FFF15E0204B1B78082B05D8FFF73CFF46
:101018001F4B00221A700BE01B4B1B781D2B07D9A6
:101028001B4B5A221A701A4B1B781846FFF7AEFE54
:10103800114B00221A707B681B681A6A7B681B6850
:1010480022F00A021A627B681A687B681B68126AB7
:101058001A62104B1B68DA680E4B1B6822F00202FA
:10106800DA6000BF0837BD4680BD00BFAFF300801F
:101078009CC420B07268A13F3C00002030000020D2
:1010880034000020380000203D00002067666666B6
:10109800000000204000002080B582B000AF00238F
:1010A8007B60104B1B6B0F4A43F4001313630D4B0B
:1010B8001B6B03F400137B607B6800220021102067
:1010C80000F06FFD102000F088FD002200211120A3
:1010D80000F067FD112000F080FD00BF0837BD4615
:1010E80080BD00BF0038024080B588B000AF07F16E
:1010F8000C0300221A605A609A60DA601A610023B1
:10110800BB60484B1B6B474A43F004031363454BD2
:101118001B6B03F00403BB60BB6800237B60414B7F
:101128001B6B404A43F0010313633E4B1B6B03F0F8
:1011380001037B607B6800233B603A4B1B6B394A99
:1011480043F002031363374B1B6B03F002033B604E
:101158003B6800224FF4C041334801F0DFF9002218
:10116800FC21324801F0DAF900224FF218413048E8
:1011780001F0D4F94FF4C043FB6001233B61002325
:101188007B610023BB6107F10C031946264801F077
:1011980029F8FC23FB6001233B6100237B610023CA
:1011A800BB6107F10C031946204801F01BF8032323
:1011B800FB6000233B6100237B6107F10C031946A8
:1011C8001B4801F00FF84DF21843FB6001233B6107
:1011D80000237B610023BB6107F10C031946144807
:1011E80001F000F84FF40053FB6001233B61022338
:1011F8007B610223BB6107F10C0319460C4800F020
:10120800F1FF4FF48053FB6000233B6102237B61B5
:1012180007F10C031946054800F0E4FF00BF20372A
:10122800BD4680BD00380240000802400000024070
:101238000004024080B500AF00F066FB00F02AF819
:10124800FFF752FFFFF728FF00F0AAF900F014F9A2
:1012580004210E4801F048FE00210C4801F044FE2C
:1012680000210B4801F04AFF0421094801F046FF1C
:101278000821074801F042FF0C21054801F03EFF14
:10128800FFF748FDFFF728FDFAE700BF88000020B8
:101298004000002080B594B000AF07F12003302251
:1012A8000021184603F04AF807F10C0300221A60DF
:1012B8005A609A60DA601A610023BB60284B1B6C85
:1012C800274A43F080531364254B1B6C03F080536B
:1012D800BB60BB6800237B60224B1B6823F4404340
:1012E800204A43F4004313601E4B1B6803F4404339
:1012F8007B607B6802233B620123FB6210233B6314
:101308000223BB630023FB6308233B6448237B64FD
:101318000223BB640423FB6407F12003184601F091
:1013280017F90346002B01D000F01EF80F23FB60CD
:1013380002233B6100237B614FF48053BB61002390
:10134800FB6107F10C030221184601F079FB034603
:10135800002B01D000F008F800BF5037BD4680BD13
:10136800003802400070004080B400AF72B600BF81
:10137800FEE7000080B483B000AF00237B60104B11
:101388005B6C0F4A43F4804353640D4B5B6C03F46E
:1013980080437B607B6800233B60094B1B6C084AD9
:1013A80043F080531364064B1B6C03F080533B607F
:1013B8003B6800BF0C37BD465DF8047B704700BF33
:1013C8000038024080B400AFFEE780B400AFFEE70B
:1013D80080B400AFFEE780B400AFFEE780B400AF92
:1013E800FEE780B400AF00BFBD465DF8047B7047E0
:1013F80080B400AF00BFBD465DF8047B704780B481
:1014080000AF00BFBD465DF8047B704780B500AFF4
:1014180000F0CCFA00BF80BD80B500AF024800F0F4
:10142800A5FC00BF80BD00BF3001002080B500AF23
:10143800024800F09BFC00BF80BD00BFD000002028
:1014480080B500AF024801F073FF00BF80BD00BF48
:101458004000002080B400AF064BD3F88830054A1E
:1014680043F47003C2F8883000BFBD465DF8047BC2
:10147800704700BF00ED00E080B58AB000AF07F10B
:10148800180300221A605A609A60DA6007F11003A4
:1014980000221A605A603B4600221A605A609A601D
:1014A800DA603D4B3D4A1A603B4B47225A603A4B43
:1014B80000229A60384B4FF6FE72DA60364B0022F3
:1014C8001A61354B00225A61334B00229A61324827
:1014D80001F062FC0346002B01D0FFF745FF4FF4F3
:1014E8008053BB6107F1180319462B4802F086F9AF
:1014F8000346002B01D0FFF737FF274801F0A4FD72
:101508000346002B01D0FFF72FFF00233B61002388
:101518007B6107F1100319461F4802F08DFE034650
:10152800002B01D0FFF720FF00233B6001237B60E5
:101538000023BB600023FB603B4600221946164887
:1015480001F0FEFF0346002B01D0FFF70DFF3B46DD
:1015580004221946104801F0F3FF0346002B01D07E
:10156800FFF702FF3B46082219460B4801F0E8FF47
:101578000346002B01D0FFF7F7FE3B460C22194625
:10158800054801F0DDFF0346002B01D0FFF7ECFE14
:1015980000BF2837BD4680BD400000200000014044
:1015A80080B58EB000AF07F1280300221A605A6098
:1015B8009A60DA6007F1200300221A605A603B1D26
:1015C80000221A605A609A60DA601A615A619A6158
:1015D800324B4FF080421A60304B47225A602F4BF3
:1015E80000229A602D4B6322DA602C4B00221A618C
:1015F8002A4B80229A61294801F0CEFB0346002B32
:1016080001D0FFF7B1FE4FF48053BB6207F1280306
:101618001946224802F0F2F80346002B01D0FFF7E2
:10162800A3FE1E4801F007FC0346002B01D0FFF77C
:101638009BFE00233B6200237B6207F120031946CF
:10164800164802F0F9FD0346002B01D0FFF78CFE87
:1016580060237B600023BB600023FB6000237B6169
:101668003B1D002219460D4802F006F80346002BE0
:1016780001D0FFF779FE3B1D04221946074801F007
:10168800FBFF0346002B01D0FFF76EFE034800F076
:10169800D9F800BF3837BD4680BD00BF880000209C
:1016A80080B58AB000AF786007F1140300221A6091
:1016B8005A609A60DA601A617B681B685A4A9342DA
:1016C80035D100233B61594B5B6C584A43F0010309
:1016D8005364564B5B6C03F001033B613B69002389
:1016E800FB60524B1B6B514A43F0010313634F4B92
:1016F8001B6B03F00103FB60FB684FF470637B61B5
:101708000223BB610023FB6100233B6201237B6250
:1017180007F114031946464800F064FD0022002131
:101728001B2000F03EFA1B2000F057FA78E07B6897
:101738001B68B3F1804F73D10023BB603B4B1B6C1C
:101748003A4A43F001031364384B1B6C03F001035E
:10175800BB60BB68374B384A1A60364B4FF0C062E3
:101768005A60344B40229A60324B0022DA60314B87
:101778004FF480621A612F4B4FF480525A612D4BFF
:101788004FF480429A612B4B0022DA61294B0022E8
:101798001A62284B00225A62264800F039FA03469A
:1017A800002B01D0FFF7E0FD7B68224A9A62214AAC
:1017B8007B6893637B681F4A1A631E4A7B6893633E
:1017C8001E4B1F4A1A601D4B4FF0C0625A601B4BDC
:1017D80040229A60194B0022DA60184B4FF480625D
:1017E8001A61164B4FF480525A61144B4FF48042E1
:1017F8009A61124B0022DA61104B00221A620F4BD9
:1018080000225A620D4800F003FA0346002B01D06B
:10181800FFF7AAFD7B68094A5A62084A7B68936306
:1018280000BF2837BD4680BD000001400038024097
:1018380000000240D0000020A060024030010020DB
:101848008860024080B588B000AF786007F10C036B
:1018580000221A605A609A60DA601A617B681B6815
:10186800B3F1804F1DD10023BB60104B1B6B0F4A97
:1018780043F0010313630D4B1B6B03F00103BB60C3
:10188800BB680323FB6002233B6100237B610023C9
:10189800BB610123FB6107F10C031946044800F002
:1018A800A1FC00BF2037BD4680BD00BF0038024004
:1018B80000000240DFF834D00D480E490E4A0023DC
:1018C80002E0D458C4500433C4188C42F9D30B4AEC
:1018D8000B4C002301E013600432A242FBD3FFF754
:1018E800B9FD02F033FDFFF7A5FC704700000120A9
:1018F8000000002010000020DC4300081000002039
:1019080094010020FEE7000080B500AF0E4B1B6875
:101918000D4A43F4007313600B4B1B680A4A43F4E7
:1019280080631360084B1B68074A43F48073136095
:10193800032000F02BF90F2000F008F8FFF71AFD3C
:101948000023184680BD00BF003C024080B582B02D
:1019580000AF7860124B1A68124B1B7819464FF487
:101968007A73B3FBF1F3B2FBF3F3184600F043F9D3
:101978000346002B01D001230EE07B680F2B0AD809
:10198800002279684FF0FF3000F00BF9064A7B68B7
:101998001360002300E0012318460837BD4680BDC8
:1019A800040000200C0000200800002080B400AFD4
:1019B800064B1B781A46064B1B681344044A1360EF
:1019C80000BFBD465DF8047B704700BF0C000020D7
:1019D8009001002080B400AF034B1B681846BD4639
:1019E8005DF8047B704700BF9001002080B485B08B
:1019F80000AF78607B6803F00703FB600C4BDB6883
:101A0800BB60BA684FF6FF031340BB60FB681A025D
:101A1800BB68134343F0BF6343F40033BB60044A1D
:101A2800BB68D36000BF1437BD465DF8047B7047C0
:101A380000ED00E080B400AF044BDB681B0A03F044
:101A480007031846BD465DF8047B704700ED00E0CB
:101A580080B483B000AF0346FB7197F90730002BC1
:101A68000BDBFB7903F01F02074997F907305B0985
:101A7800012000FA02F241F8232000BF0C37BD46CE
:101A88005DF8047B704700BF00E100E080B483B0DC
:101A980000AF03463960FB7197F90730002B0ADB6A
:101AA8003B68DAB20C4997F907301201D2B20B44FD
:101AB80083F800230AE03B68DAB20849FB7903F0AF
:101AC8000F03043B1201D2B20B441A7600BF0C3745
:101AD800BD465DF8047B704700E100E000ED00E0E2
:101AE80080B489B000AFF860B9607A60FB6803F031
:101AF8000703FB61FB69C3F10703042B28BF042319
:101B0800BB61FB690433062B02D9FB69033B00E088
:101B180000237B614FF0FF32BB6902FA03F3DA431B
:101B2800BB681A407B699A404FF0FF317B6901FA24
:101B380003F3D9437B680B40134318462437BD464B
:101B48005DF8047B7047000080B582B000AF786014
:101B58007B68013BB3F1807F01D301230FE00A4A80
:101B68007B68013B53600F214FF0FF30FFF78EFF7A
:101B7800054B00229A60044B07221A60002318467E
:101B88000837BD4680BD00BF10E000E080B582B0D8
:101B980000AF78607868FFF729FF00BF0837BD46B7
:101BA80080BD80B586B000AF0346B9607A60FB732C
:101BB80000237B61FFF73EFF78617A68B96878692E
:101BC800FFF78EFF024697F90F3011461846FFF7C8
:101BD8005DFF00BF1837BD4680BD80B582B000AF3D
:101BE8000346FB7197F907301846FFF731FF00BF2E
:101BF8000837BD4680BD80B582B000AF7860786890
:101C0800FFF7A2FF034618460837BD4680BD00000F
:101C180080B586B000AF786000237B61FFF7DAFEFD
:101C280038617B68002B01D1012399E07B6802228F
:101C380083F835207B68002283F834207B681B6892
:101C48001A687B681B6822F001021A600FE0FFF730
:101C5800C1FE02463B69D31A052B08D97B682022AE
:101C68005A657B68032283F83520032378E07B6874
:101C78001B681B6803F00103002BE8D17B681B6815
:101C88001B687B617A69384B13407B617B685A68B3
:101C98007B689B681A437B68DB681A437B681B690F
:101CA8001A437B685B691A437B689B691A437B68A4
:101CB800DB691A437B681B6A13437A6913437B61A8
:101CC8007B685B6A042B07D17B68DA6A7B681B6BCD
:101CD80013437A6913437B617B681B687A691A60CE
:101CE8007B681B685B697B617B6923F007037B6109
:101CF8007B685B6A7A6913437B617B685B6A042B48
:101D080017D17B689B6A7A6913437B617B68DB6ABE
:101D1800002B0ED0786800F0E9F90346002B08D0B4
:101D28007B6840225A657B68012283F835200123AD
:101D380016E07B681B687A695A61786800F0A0F938
:101D48000346FB607B68DB6D3F229A40FB689A6024
:101D58007B6800225A657B68012283F835200023BE
:101D680018461837BD4680BD3F8010F080B586B054
:101D780000AF78600023BB608E4B1B688E4AA2FBC5
:101D880003239B0A7B617B689B6D3B613B691B68F6
:101D9800FB607B68DB6D08229A40FB681340002BD0
:101DA8001AD07B681B681B6803F00403002B13D050
:101DB8007B681B681A687B681B6822F004021A603B
:101DC8007B68DB6D08229A403B699A607B685B6D93
:101DD80043F001027B685A657B68DB6D01229A40FB
:101DE800FB681340002B12D07B681B685B6903F00B
:101DF8008003002B0BD07B68DB6D01229A403B6986
:101E08009A607B685B6D43F002027B685A657B6869
:101E1800DB6D04229A40FB681340002B12D07B68CC
:101E28001B681B6803F00203002B0BD07B68DB6D7B
:101E380004229A403B699A607B685B6D43F0040218
:101E48007B685A657B68DB6D10229A40FB681340FB
:101E5800002B43D07B681B681B6803F00803002B2A
:101E68003CD07B68DB6D10229A403B699A607B68A6
:101E78001B681B6803F48023002B18D07B681B6841
:101E88001B6803F40023002B08D17B681B6C002B14
:101E980024D07B681B6C786898471FE07B689B6C34
:101EA800002B1BD07B689B6C7868984716E07B6892
:101EB8001B681B6803F48073002B07D17B681B68C1
:101EC8001A687B681B6822F008021A607B681B6C22
:101ED800002B03D07B681B6C786898477B68DB6DA8
:101EE80020229A40FB681340002B00F08F807B680B
:101EF8001B681B6803F01003002B00F087807B68C9
:101F0800DB6D20229A403B699A607B6893F83530F4
:101F1800DBB2052B36D17B681B681A687B681B68A7
:101F280022F016021A607B681B685A697B681B6876
:101F380022F080025A617B681B6C002B03D17B68FE
:101F48009B6C002B07D07B681B681A687B681B6832
:101F580022F008021A607B68DB6D3F229A403B69D9
:101F68009A607B68012283F835207B68002283F819
:101F780034207B681B6D002B7ED07B681B6D7868D6
:101F8800984779E07B681B681B6803F48023002B63
:101F98001DD07B681B681B6803F40023002B0DD140
:101FA8007B685B6C002B31D07B685B6C78689847EA
:101FB8002CE000BF04000020B5814E1B7B68DB6B62
:101FC800002B23D07B68DB6B786898471EE07B6822
:101FD8001B681B6803F48073002B0FD17B681B6898
:101FE8001A687B681B6822F010021A607B6801225D
:101FF80083F835207B68002283F834207B68DB6B0C
:10200800002B03D07B68DB6B786898477B685B6D37
:10201800002B32D07B685B6D03F00103002B22D0CC
:102028007B68052283F835207B681B681A687B6803
:102038001B6822F001021A60BB680133BB607A6931
:102048009A4207D37B681B681B6803F00103002BC7
:10205800F2D100E000BF7B68012283F835207B685D
:10206800002283F834207B68DB6C002B05D07B686A
:10207800DB6C7868984700E000BF1837BD4680BD24
:1020880080B485B000AF78607B681B68DBB2103B1A
:10209800144AA2FB03231B09FB60134AFB68134481
:1020A8001B781A467B68DA65FB68032B09D97B68BD
:1020B8001B6823F47F7323F003031A1D7B689A655A
:1020C80007E07B681B6823F47F7323F003037A68B7
:1020D80093657B689B6D18461437BD465DF8047B95
:1020E800704700BFABAAAAAAC443000880B485B051
:1020F80000AF78600023FB737B689B6ABB607B68DA
:102108009B69002B1FD1BB68032B56D801A252F83C
:1021180023F000BF2D2100083F2100082D210008D1
:10212800C32100087B68DB6A03F08073002B46D06C
:102138000123FB7343E07B68DB6AB3F1C07F40D1C6
:102148000123FB733DE07B689B69B3F5005F21D1F8
:10215800BB68032B37D801A252F823F07521000879
:102168007B210008752100088D2100080123FB73DD
:1021780030E07B68DB6A03F08073002B25D00123F5
:10218800FB7322E07B68DB6AB3F1C07F1FD10123B8
:10219800FB731CE0BB68022B03D9BB68032B03D07D
:1021A80018E00123FB7315E07B68DB6A03F080739A
:1021B800002B0ED00123FB730BE000BF0AE000BF29
:1021C80008E000BF06E000BF04E000BF02E000BF77
:1021D80000E000BFFB7B18461437BD465DF8047B62
:1021E800704700BF80B489B000AF786039600023C1
:1021F8007B6100233B610023BB610023FB6159E144
:102208000122FB6902FA03F37B613B681B687A6968
:1022180013403B613A697B699A4240F048813B68C8
:102228005B6803F00303012B05D03B685B6803F090
:102238000303022B30D17B689B68BB61FB695B00A1
:10224800032202FA03F3DB43BA691340BB613B681C
:10225800DA68FB695B0002FA03F3BA691343BB61EE
:102268007B68BA699A607B685B68BB610122FB691D
:1022780002FA03F3DB43BA691340BB613B685B684E
:102288001B0903F00102FB6902FA03F3BA6913435D
:10229800BB617B68BA695A603B685B6803F00303FB
:1022A800032B17D07B68DB68BB61FB695B000322EB
:1022B80002FA03F3DB43BA691340BB613B689A68CF
:1022C800FB695B0002FA03F3BA691343BB617B68DD
:1022D800BA69DA603B685B6803F00303022B23D119
:1022E800FB69DA087B68083253F82230BB61FB6966
:1022F80003F007039B000F2202FA03F3DB43BA69DA
:102308001340BB613B681A69FB6903F007039B0034
:1023180002FA03F3BA691343BB61FB69DA087B6805
:102328000832B96943F822107B681B68BB61FB69F6
:102338005B00032202FA03F3DB43BA691340BB6173
:102348003B685B6803F00302FB695B0002FA03F376
:10235800BA691343BB617B68BA691A603B685B68FA
:1023680003F44033002B00F0A2800023FB60574B9E
:102378005B6C564A43F480435364544B5B6C03F4E0
:102388008043FB60FB68524AFB699B08023352F8A2
:102398002330BB61FB6903F003039B000F2202FAA1
:1023A80003F3DB43BA691340BB617B68494A934234
:1023B80019D07B68484A934213D07B68474A9342B6
:1023C8000DD07B68464A934207D07B68454A9342C2
:1023D80001D1042308E0072306E0032304E00223D5
:1023E80002E0012300E00023FA6902F003029200F0
:1023F8009340BA691343BB613549FB699B080233B3
:10240800BA6941F82320384B9B68BB613B69DB43C1
:10241800BA691340BB613B685B6803F48013002B07
:1024280003D0BA693B691343BB612F4ABB69936008
:102438002D4BDB68BB613B69DB43BA691340BB6169
:102448003B685B6803F40013002B03D0BA693B694F
:102458001343BB61244ABB69D360234B5B68BB61F0
:102468003B69DB43BA691340BB613B685B6803F4B3
:102478000033002B03D0BA693B691343BB611A4A86
:10248800BB695360184B1B68BB613B69DB43BA6986
:102498001340BB613B685B6803F48033002B03D0B7
:1024A800BA693B691343BB610F4ABB691360FB6997
:1024B8000133FB61FB690F2B7FF6A2AE00BF00BFA3
:1024C8002437BD465DF8047B704700BF00380240E2
:1024D80000380140000002400004024000080240A9
:1024E800000C024000100240003C014080B485B05E
:1024F80000AF78600B467B807B681A697B88134045
:10250800002B02D00123FB7301E00023FB73FB7B4C
:1025180018461437BD465DF8047B704780B483B015
:1025280000AF78600B467B8013467B707B78002B6E
:1025380003D07A887B689A6103E07B881A047B68F9
:102548009A6100BF0C37BD465DF8047B70470000F8
:1025580080B586B000AF78607B68002B01D101237D
:1025680067E27B681B6803F00103002B75D0884B7A
:102578009B6803F00C03042B0CD0854B9B6803F07D
:102588000C03082B12D1824B5B6803F48003B3F56C
:10259800800F0BD17E4B1B6803F40033002B5BD0FC
:1025A8007B685B68002B57D1012342E27B685B683C
:1025B800B3F5803F06D1764B1B68754A43F48033E8
:1025C80013601DE07B685B68B3F5A02F0CD1704BDE
:1025D8001B686F4A43F4802313606D4B1B686C4A79
:1025E80043F4803313600BE0694B1B68684A23F49B
:1025F80080331360664B1B68654A23F4802313609D
:102608007B685B68002B13D0FFF7E4F9386108E0BA
:10261800FFF7E0F902463B69D31A642B01D903237B
:1026280007E25B4B1B6803F40033002BF0D014E087
:10263800FFF7D0F9386108E0FFF7CCF902463B69AB
:10264800D31A642B01D90323F3E1514B1B6803F41C
:102658000033002BF0D100E000BF7B681B6803F05B
:102668000203002B63D04A4B9B6803F00C03002B3A
:102678000BD0474B9B6803F00C03082B1CD1444B31
:102688005B6803F48003002B16D1414B1B6803F0F1
:102698000203002B05D07B68DB68012B01D00123E6
:1026A800C7E13B4B1B6823F0F8027B681B69DB0022
:1026B800374913430B603AE07B68DB68002B20D076
:1026C800344B01221A60FFF785F9386108E0FFF7FB
:1026D80081F902463B69D31A022B01D90323A8E1E9
:1026E8002B4B1B6803F00203002BF0D0284B1B6810
:1026F80023F0F8027B681B69DB00254913430B6054
:1027080015E0244B00221A60FFF764F9386108E0ED
:10271800FFF760F902463B69D31A022B01D903235C
:1027280087E11B4B1B6803F00203002BF0D17B6889
:102738001B6803F00803002B36D07B685B69002B0D
:1027480016D0154B01221A60FFF744F9386108E0EA
:10275800FFF740F902463B69D31A022B01D903233C
:1027680067E10B4B5B6F03F00203002BF0D01BE01B
:10277800094B00221A60FFF72DF938610EE0FFF7C8
:1027880029F902463B69D31A022B07D9032350E1E2
:102798000038024000004742800E4742884B5B6F7A
:1027A80003F00203002BEAD17B681B6803F00403E3
:1027B800002B00F097800023FB75814B1B6C03F006
:1027C8008053002B0FD10023BB607D4B1B6C7C4AD0
:1027D80043F0805313647A4B1B6C03F08053BB6047
:1027E800BB680123FB75774B1B6803F48073002BD0
:1027F80018D1744B1B68734A43F480731360FFF756
:10280800E9F8386108E0FFF7E5F802463B69D31AB2
:10281800022B01D903230CE16A4B1B6803F4807374
:10282800002BF0D07B689B68012B06D1644B1B6F93
:10283800634A43F0010313671CE07B689B68052B20
:102848000CD15F4B1B6F5E4A43F0040313675C4B6C
:102858001B6F5B4A43F0010313670BE0584B1B6F78
:10286800574A23F001031367554B1B6F544A23F053
:10287800040313677B689B68002B15D0FFF7AAF841
:1028880038610AE0FFF7A6F802463B69D31A41F21D
:102898008832934201D90323CBE0494B1B6F03F0E5
:1028A8000203002BEED014E0FFF794F838610AE039
:1028B800FFF790F802463B69D31A41F288329342F7
:1028C80001D90323B5E03E4B1B6F03F00203002B35
:1028D800EED1FB7D012B05D1394B1B6C384A23F017
:1028E800805313647B689B69002B00F0A180344BF4
:1028F8009B6803F00C03082B5CD07B689B69022B58
:1029080041D1314B00221A60FFF764F8386108E0C2
:10291800FFF760F802463B69D31A022B01D903235B
:1029280087E0274B1B6803F00073002BF0D17B680E
:10293800DA697B681B6A1A437B685B6A9B011A43E6
:102948007B689B6A5B08013B1B041A437B68DB6A54
:102958001B061B4913434B601B4B01221A60FFF7F0
:1029680039F8386108E0FFF735F802463B69D31AB1
:10297800022B01D903235CE0114B1B6803F00073A1
:10298800002BF0D054E0104B00221A60FFF722F819
:10299800386108E0FFF71EF802463B69D31A022B9C
:1029A80001D9032345E0064B1B6803F00073002B95
:1029B800F0D13DE07B689B69012B07D1012338E00A
:1029C8000038024000700040600047421B4B5B68C3
:1029D800FB607B689B69012B28D0FB6803F48002AD
:1029E8007B68DB699A4221D1FB6803F03F027B6870
:1029F8001B6A9A421AD1FA6847F6C07313407A687C
:102A0800526A9201934211D1FB6803F440327B6809
:102A18009B6A5B08013B1B049A4207D1FB6803F0E1
:102A280070627B68DB6A1B069A4201D0012300E0D2
:102A3800002318461837BD4680BD00BF0038024045
:102A480080B584B000AF786039607B68002B01D115
:102A58000123CCE0684B1B6803F007033A689A42ED
:102A68000CD9654B3A68D2B21A70634B1B6803F0F5
:102A780007033A689A4201D00123B8E07B681B68D3
:102A880003F00203002B20D07B681B6803F00403CB
:102A9800002B05D0594B9B68584A43F4E053936088
:102AA8007B681B6803F00803002B05D0534B9B6819
:102AB800524A43F460439360504B9B6823F0F00202
:102AC8007B689B684D4913438B607B681B6803F0E8
:102AD8000103002B44D07B685B68012B07D1474B6F
:102AE8001B6803F40033002B19D101237FE07B68B6
:102AF8005B68022B03D07B685B68032B07D13F4BD5
:102B08001B6803F00073002B09D101236FE03B4BD6
:102B18001B6803F00203002B01D1012367E0374B48
:102B28009B6823F003027B685B68344913438B601E
:102B3800FEF750FFF8600AE0FEF74CFF0246FB681C
:102B4800D31A41F28832934201D903234FE02B4B29
:102B58009B6803F00C027B685B689B009A42EBD190
:102B6800254B1B6803F007033A689A420CD2224BA4
:102B78003A68D2B21A70204B1B6803F007033A6810
:102B88009A4201D0012332E07B681B6803F00403FA
:102B9800002B08D0194B9B6823F4E0527B68DB6854
:102BA800164913438B607B681B6803F00803002BEE
:102BB80009D0124B9B6823F460427B681B69DB00D9
:102BC8000E4913438B6000F021F802460B4B9B68BB
:102BD8001B0903F00F030A49CB5C22FA03F3094AE5
:102BE8001360094B1B681846FEF7B0FE0023184611
:102BF8001037BD4680BD00BF003C0240003802408F
:102C0800B443000804000020080000202DE9B04F5C
:102C180090B000AF00237B630023FB6300233B637A
:102C28000023BB63594B9B6803F00C03082B0DD0A2
:102C3800082B00F2A180002B02D0042B03D09BE0CC
:102C4800534BBB639BE0534BBB6398E04F4B5B68B4
:102C580003F03F037B634D4B5B6803F48003002B59
:102C680028D04A4B5B689B0900223B627A623B6A28
:102C7800C3F308000021474B03FB01F2002300FBCC
:102C880003F31344434AA0FB0212FA620A46BA62EB
:102C9800FA6A1344FB627B6B0022BB61FA61D7E9D5
:102CA8000623D7E90A01FDF781FE02460B461346C3
:102CB800FB6353E0354B5B689B0900223B617A61FB
:102CC8003B69C3F3080A4FF0000B52465B464FF0CE
:102CD80000004FF00001590141EAD261500102465B
:102CE8000B46B2EB0A0863EB0B094FF000024FF0FA
:102CF80000034FEA891343EA98634FEA8812B2EB5C
:102D0800080463EB09054FF000024FF00003EB00E5
:102D180043EA5473E20014461D4614EB0A033B6071
:102D280045EB0B037B604FF000024FF00003D7E93F
:102D3800004529468B02214643EA915321468A02DF
:102D4800104619467B6B0022BB60FA60D7E9022364
:102D5800FDF72CFE02460B461346FB630B4B5B68E4
:102D68001B0C03F0030301335B003B63FA6B3B6B03
:102D7800B2FBF3F3BB6302E0054BBB6300BFBB6B65
:102D880018464037BD46BDE8B08F00BF0038024046
:102D98000024F40040787D0180B582B000AF7860EF
:102DA8007B68002B01D1012341E07B6893F83D301B
:102DB800DBB2002B06D17B68002283F83C207868C0
:102DC800FEF76EFC7B68022283F83D207B681A6858
:102DD8007B6804331946104600F044FE7B680122E4
:102DE80083F846207B68012283F83E207B68012215
:102DF80083F83F207B68012283F840207B6801220A
:102E080083F841207B68012283F842207B680122F5
:102E180083F843207B68012283F844207B680122E1
:102E280083F845207B68012283F83D20002318465B
:102E38000837BD4680BD80B582B000AF78607B683A
:102E4800002B01D1012341E07B6893F83D30DBB2D0
:102E5800002B06D17B68002283F83C20786800F0BC
:102E680039F87B68022283F83D207B681A687B6802
:102E780004331946104600F0F5FD7B68012283F8FB
:102E880046207B68012283F83E207B68012283F874
:102E98003F207B68012283F840207B68012283F869
:102EA80041207B68012283F842207B68012283F855
:102EB80043207B68012283F844207B68012283F841
:102EC80045207B68012283F83D20002318460837F7
:102ED800BD4680BD80B483B000AF786000BF0C37BA
:102EE800BD465DF8047B704780B584B000AF78605C
:102EF80039603B68002B09D17B6893F83E30DBB220
:102F0800012B14BF01230023DBB222E03B68042B12
:102F180009D17B6893F83F30DBB2012B14BF012342
:102F28000023DBB215E03B68082B09D17B6893F8D6
:102F38004030DBB2012B14BF01230023DBB208E0D1
:102F48007B6893F84130DBB2012B14BF01230023C7
:102F5800DBB2002B01D0012368E03B68002B04D1D1
:102F68007B68022283F83E2013E03B68042B04D1DF
:102F78007B68022283F83F200BE03B68082B04D1D2
:102F88007B68022283F8402003E07B68022283F8F2
:102F980041207B681B6801223968184601F026F930
:102FA8007B681B68234A934207D17B681B685A6C6D
:102FB8007B681B6842F400425A647B681B681D4AA0
:102FC800934218D07B681B68B3F1804F13D07B689D
:102FD8001B68194A93420ED07B681B68174A9342B4
:102FE80009D07B681B68164A934204D07B681B682B
:102FF800144A934211D17B681B689B6803F007034E
:10300800FB60FB68062B10D07B681B681A687B681E
:103018001B6842F001021A6007E07B681B681A68A7
:103028007B681B6842F001021A60002318461037BB
:10303800BD4680BD0000014000040040000800407B
:10304800000C00400040014080B582B000AF7860BD
:103058007B68002B01D1012341E07B6893F83D3068
:10306800DBB2002B06D17B68002283F83C2078680D
:1030780000F039F87B68022283F83D207B681A68E3
:103088007B6804331946104600F0ECFC7B6801228B
:1030980083F846207B68012283F83E207B68012262
:1030A80083F83F207B68012283F840207B68012257
:1030B80083F841207B68012283F842207B68012243
:1030C80083F843207B68012283F844207B6801222F
:1030D80083F845207B68012283F83D2000231846A9
:1030E8000837BD4680BD80B483B000AF786000BFAC
:1030F8000C37BD465DF8047B7047000080B584B08E
:1031080000AF786039600023FB733B68002B04D163
:103118007B6893F83E30DBB213E03B68042B04D1A4
:103128007B6893F83F30DBB20BE03B68082B04D197
:103138007B6893F84030DBB203E07B6893F841305A
:10314800DBB2BB733B68002B04D17B6893F8423039
:10315800DBB213E03B68042B04D17B6893F843305F
:10316800DBB20BE03B68082B04D17B6893F8443052
:10317800DBB203E07B6893F84530DBB27B73BB7B43
:10318800012B02D17B7B012B01D00123C2E03B68DC
:10319800002B04D17B68022283F83E2013E03B68B1
:1031A800042B04D17B68022283F83F200BE03B68A4
:1031B800082B04D17B68022283F8402003E07B6857
:1031C800022283F841203B68002B04D17B6802224D
:1031D80083F8422013E03B68042B04D17B68022269
:1031E80083F843200BE03B68082B04D17B6802225C
:1031F80083F8442003E07B68022283F845203B687B
:103208000C2B41D801A252F823F000BF4932000824
:103218009132000891320008913200085B320008B0
:103228009132000891320008913200086D3200088E
:103238009132000891320008913200087F3200086C
:103248007B681B68DA687B681B6842F00202DA60F8
:103258001DE07B681B68DA687B681B6842F0040223
:10326800DA6014E07B681B68DA687B681B6842F0E8
:103278000802DA600BE07B681B68DA687B681B6809
:1032880042F01002DA6002E00123FB7300BFFB7B0F
:10329800002B3ED17B681B6801223968184600F074
:1032A800A5FF7B681B681D4A934218D07B681B6882
:1032B800B3F1804F13D07B681B68194A93420ED034
:1032C8007B681B68174A934209D07B681B68164ABB
:1032D800934204D07B681B68144A934211D17B68DF
:1032E8001B689B6803F00703BB60BB68062B10D004
:1032F8007B681B681A687B681B6842F001021A60C9
:1033080007E07B681B681A687B681B6842F001024B
:103318001A60FB7B18461037BD4680BD000001408F
:103328000004004000080040000C0040004001403C
:1033380080B582B000AF78607B681B681B6903F0BA
:103348000203022B22D17B681B68DB6803F00203AF
:10335800022B1BD17B681B686FF002021A617B6825
:1033680001221A777B681B689B6903F00303002B13
:1033780003D07868FDF7B0FD05E0786800F054FBED
:10338800786800F05BFB7B6800221A777B681B6813
:103398001B6903F00403042B22D17B681B68DB68DC
:1033A80003F00403042B1BD17B681B686FF0040235
:1033B8001A617B6802221A777B681B689B6903F491
:1033C8004073002B03D07868FDF786FD05E0786828
:1033D80000F02AFB786800F031FB7B6800221A773E
:1033E8007B681B681B6903F00803082B22D17B68E4
:1033F8001B68DB6803F00803082B1BD17B681B687C
:103408006FF008021A617B6804221A777B681B68D0
:10341800DB6903F00303002B03D07868FDF75CFD3C
:1034280005E0786800F000FB786800F007FB7B682F
:1034380000221A777B681B681B6903F01003102BA6
:1034480022D17B681B68DB6803F01003102B1BD1AB
:103458007B681B686FF010021A617B6808221A7774
:103468007B681B68DB6903F44073002B03D0786822
:10347800FDF732FD05E0786800F0D6FA786800F0CC
:10348800DDFA7B6800221A777B681B681B6903F0EA
:103498000103012B0ED17B681B68DB6803F0010375
:1034A800012B07D17B681B686FF001021A617868ED
:1034B80000F0B0FA7B681B681B6903F08003802B5F
:1034C8000ED17B681B68DB6803F08003802B07D173
:1034D8007B681B686FF080021A61786800F024FF2F
:1034E8007B681B681B6903F04003402B0ED17B6887
:1034F8001B68DB6803F04003402B07D17B681B681F
:103508006FF040021A61786800F0A2FA7B681B68C5
:103518001B6903F02003202B0ED17B681B68DB6836
:1035280003F02003202B07D17B681B686FF0200273
:103538001A61786800F0EEFE00BF0837BD4680BD0E
:1035480080B586B000AFF860B9607A600023FB757B
:10355800FB6893F83C30012B01D1022388E0FB681B
:10356800012283F83C207B68002B1BD1FB6818687C
:10357800BB681968BB685A68BB68DB6800F07EFCEA
:10358800FB681B689A69FB681B6822F00C029A6149
:10359800FB681B689969BB689A68FB681B680A43E3
:1035A8009A6160E07B68042B1CD1FB681868BB68D3
:1035B8001968BB685A68BB68DB6800F0F6FCFB68F2
:1035C8001B689A69FB681B6822F440629A61FB6871
:1035D8001B689969BB689B681A02FB681B680A43E9
:1035E8009A6140E07B68082B1BD1FB681868BB68B0
:1035F8001968BB685A68BB68DB6800F043FDFB6864
:103608001B68DA69FB681B6822F00C02DA61FB6848
:103618001B68D969BB689A68FB681B680A43DA614A
:1036280021E07B680C2B1CD1FB681868BB68196803
:10363800BB685A68BB68DB6800F060FDFB681B6804
:10364800DA69FB681B6822F44062DA61FB681B6870
:10365800D969BB689B681A02FB681B680A43DA6170
:1036680001E00123FB75FB68002283F83C20FB7D09
:1036780018461837BD4680BD80B586B000AFF860E3
:10368800B9607A600023FB75FB6893F83C30012B26
:1036980001D10223AEE0FB68012283F83C207B685D
:1036A8000C2B00F29F8001A252F823F0E9360008A3
:1036B800ED370008ED370008ED3700082937000816
:1036C800ED370008ED370008ED3700086B370008C4
:1036D800ED370008ED370008ED370008AB37000874
:1036E800FB681B68B968184600F03CFAFB681B6861
:1036F8009A69FB681B6842F008029A61FB681B68BC
:103708009A69FB681B6822F004029A61FB681B68CF
:103718009969BB681A69FB681B680A439A6164E087
:10372800FB681B68B968184600F082FAFB681B68DA
:103738009A69FB681B6842F400629A61FB681B681F
:103748009A69FB681B6822F480629A61FB681B68AF
:103758009969BB681B691A02FB681B680A439A616E
:1037680043E0FB681B68B968184600F0CDFAFB68AF
:103778001B68DA69FB681B6842F00802DA61FB68BB
:103788001B68DA69FB681B6822F00402DA61FB68CF
:103798001B68D969BB681A69FB681B680A43DA6148
:1037A80023E0FB681B68B968184600F017FBFB6844
:1037B8001B68DA69FB681B6842F40062DA61FB681F
:1037C8001B68DA69FB681B6822F48062DA61FB68AF
:1037D8001B68D969BB681B691A02FB681B680A4326
:1037E800DA6102E00123FB7500BFFB68002283F861
:1037F8003C20FB7D18461837BD4680BD80B584B097
:1038080000AF786039600023FB737B6893F83C3025
:10381800012B01D10223B4E07B68012283F83C200C
:103828007B68022283F83D207B681B689B68BB602D
:10383800BB6823F07703BB60BB6823F47F43BB609E
:103848007B681B68BA689A603B681B68B3F5005FC1
:103858003ED0B3F5005F00F28780B3F5805F00F0DB
:103868008680B3F5805F7FD8702B1AD0702B7BD8F9
:10387800602B50D0602B77D8502B3CD0502B73D86E
:10388800402B58D0402B6FD8302B64D0302B6BD8BE
:10389800202B60D0202B67D8002B5CD0102B5AD05F
:1038A80062E07B6818683B6899683B685A683B68BF
:1038B800DB6800F07BFC7B681B689B68BB60BB68AF
:1038C80043F07703BB607B681B68BA689A604FE077
:1038D8007B6818683B6899683B685A683B68DB688E
:1038E80000F064FC7B681B689A687B681B6842F47C
:1038F80080429A603CE07B6818683B6859683B687E
:10390800DB681A4600F022FB7B681B6850211846CA
:1039180000F031FC2CE07B6818683B6859683B680C
:10392800DB681A4600F07EFB7B681B68602118463E
:1039380000F021FC1CE07B6818683B6859683B680C
:10394800DB681A4600F002FB7B681B6840211846BA
:1039580000F011FC0CE07B681A683B681B6819468C
:10396800104600F008FC03E00123FB7300E000BFF1
:103978007B68012283F83D207B68002283F83C2085
:10398800FB7B18461037BD4680BD000080B485B06B
:1039980000AF786039600023FB603B680C2B31D89E
:1039A80001A252F823F000BFE53900080D3A0008DB
:1039B8000D3A00080D3A0008EF3900080D3A0008E2
:1039C8000D3A00080D3A0008F93900080D3A0008C8
:1039D8000D3A00080D3A0008033A00087B681B6896
:1039E8005B6BFB600FE07B681B689B6BFB600AE00E
:1039F8007B681B68DB6BFB6005E07B681B681B6CE6
:103A0800FB6000E000BFFB6818461437BD465DF850
:103A1800047B704780B483B000AF786000BF0C3778
:103A2800BD465DF8047B704780B483B000AF786012
:103A380000BF0C37BD465DF8047B704780B483B087
:103A480000AF786000BF0C37BD465DF8047B704757
:103A580080B483B000AF786000BF0C37BD465DF816
:103A6800047B704780B485B000AF786039607B68AC
:103A78001B68FB607B68344A93420FD07B68B3F1C4
:103A8800804F0BD07B68314A934207D07B68304A1D
:103A9800934203D07B682F4A934208D1FB6823F0F6
:103AA8007003FB603B685B68FA681343FB607B68E4
:103AB800254A93421BD07B68B3F1804F17D07B68AF
:103AC800224A934213D07B68214A93420FD07B68E5
:103AD800204A93420BD07B681F4A934207D07B68E9
:103AE8001E4A934203D07B681D4A934208D1FB6863
:103AF80023F44073FB603B68DB68FA681343FB60A0
:103B0800FB6823F080023B685B691343FB607B68BA
:103B1800FA681A603B689A687B68DA623B681A68D8
:103B28007B689A627B68084A934203D13B681A69AA
:103B38007B681A637B6801225A6100BF1437BD464F
:103B48005DF8047B704700BF00000140000400409E
:103B580000080040000C00400040014000440140C3
:103B68000048014080B487B000AF786039607B6856
:103B78001B6A23F001027B681A627B681B6A7B61FF
:103B88007B685B683B617B689B69FB60FB6823F033
:103B98007003FB60FB6823F00303FB603B681B6852
:103BA800FA681343FB607B6923F002037B613B687F
:103BB8009B687A6913437B617B681C4A93420CD1EA
:103BC8007B6923F008037B613B68DB687A691343F0
:103BD8007B617B6923F004037B617B68134A934212
:103BE80011D13B6923F480733B613B6923F4007373
:103BF8003B613B685B693A6913433B613B689B697E
:103C08003A6913433B617B683A695A607B68FA6892
:103C18009A613B685A687B685A637B687A691A625A
:103C280000BF1C37BD465DF8047B704700000140AB
:103C380080B487B000AF786039607B681B6A23F076
:103C480010027B681A627B681B6A7B617B685B6811
:103C58003B617B689B69FB60FB6823F4E043FB6086
:103C6800FB6823F44073FB603B681B681B02FA681F
:103C78001343FB607B6923F020037B613B689B68EF
:103C88001B017A6913437B617B681E4A93420DD1FD
:103C98007B6923F080037B613B68DB681B017A69E1
:103CA80013437B617B6923F040037B617B68154A82
:103CB800934213D13B6923F480633B613B6923F44E
:103CC80000633B613B685B699B003A6913433B6156
:103CD8003B689B699B003A6913433B617B683A697F
:103CE8005A607B68FA689A613B685A687B689A638D
:103CF8007B687A691A6200BF1C37BD465DF8047B91
:103D0800704700BF0000014080B487B000AF786002
:103D180039607B681B6A23F480727B681A627B684F
:103D28001B6A7B617B685B683B617B68DB69FB6066
:103D3800FB6823F07003FB60FB6823F00303FB6060
:103D48003B681B68FA681343FB607B6923F40073C4
:103D58007B613B689B681B027A6913437B617B68C4
:103D68001D4A93420DD17B6923F400637B613B6854
:103D7800DB681B027A6913437B617B6923F48063E8
:103D88007B617B68144A934213D13B6923F48053C7
:103D98003B613B6923F400533B613B685B691B0152
:103DA8003A6913433B613B689B691B013A691343BA
:103DB8003B617B683A695A607B68FA68DA613B68FC
:103DC8005A687B68DA637B687A691A6200BF1C37B5
:103DD800BD465DF8047B70470000014080B487B0A1
:103DE80000AF786039607B681B6A23F480527B6877
:103DF8001A627B681B6A3B617B685B687B617B68D6
:103E0800DB69FB60FB6823F4E043FB60FB6823F499
:103E18004073FB603B681B681B02FA681343FB6036
:103E28003B6923F400533B613B689B681B033A6979
:103E380013433B617B68104A934209D17B6923F4A1
:103E480080437B613B685B699B017A6913437B61B3
:103E58007B687A695A607B68FA68DA613B685A68F5
:103E68007B681A647B683A691A6200BF1C37BD46D2
:103E78005DF8047B704700BF0000014080B487B044
:103E880000AFF860B9607A603B60FB681B6A23F09A
:103E98000102FB681A62FB689B697B61FB681B6A0D
:103EA8003B61FB68244A934213D0FB68B3F1804F0F
:103EB8000FD0FB68214A93420BD0FB68204A9342FB
:103EC80007D0FB681F4A934203D0FB681E4A9342FF
:103ED80001D1012300E00023002B08D07B6923F0E7
:103EE80003037B617A697B6813437B6103E07B6929
:103EF80043F001037B617B6923F0F0037B613B683E
:103F08001B01DBB27A6913437B613B6923F00A0327
:103F18003B61BB6803F00A033A6913433B61FB68E2
:103F28007A699A61FB683A691A6200BF1C37BD4614
:103F38005DF8047B704700BF0000014000040040AA
:103F480000080040000C00400040014080B487B0E9
:103F580000AFF860B9607A60FB681B6A7B61FB6838
:103F68001B6A23F00102FB681A62FB689B693B61CC
:103F78003B6923F0F0033B617B681B013A691343FB
:103F88003B617B6923F00A037B617A69BB68134351
:103F98007B61FB683A699A61FB687A691A6200BFBB
:103FA8001C37BD465DF8047B704780B487B000AF0E
:103FB800F860B9607A603B60FB681B6A23F0100206
:103FC800FB681A62FB689B697B61FB681B6A3B6143
:103FD8007B6923F440737B617B681B027A69134316
:103FE8007B617B6923F470437B613B681B039BB255
:103FF8007A6913437B613B6923F0A0033B61BB688B
:104008001B0103F0A0033A6913433B61FB687A691B
:104018009A61FB683A691A6200BF1C37BD465DF8B1
:10402800047B704780B487B000AFF860B9607A60ED
:10403800FB681B6A23F01002FB681A62FB689B6925
:104048007B61FB681B6A3B617B6923F470437B617E
:104058007B681B037A6913437B613B6923F0A003E8
:104068003B61BB681B013A6913433B61FB687A6992
:104078009A61FB683A691A6200BF1C37BD465DF851
:10408800047B704780B487B000AFF860B9607A608D
:104098003B60FB681B6A23F48072FB681A62FB684A
:1040A800DB697B61FB681B6A3B617B6923F0030367
:1040B8007B617A697B6813437B617B6923F0F0033A
:1040C8007B613B681B01DBB27A6913437B613B6907
:1040D80023F420633B61BB681B0203F420633A6945
:1040E80013433B61FB687A69DA61FB683A691A62D3
:1040F80000BF1C37BD465DF8047B704780B487B0AD
:1041080000AFF860B9607A603B60FB681B6A23F413
:104118008052FB681A62FB68DB697B61FB681B6A7B
:104128003B617B6923F440737B617B681B027A697E
:1041380013437B617B6923F470437B613B681B03FA
:104148009BB27A6913437B613B6923F420433B614B
:10415800BB681B0303F420433A6913433B61FB68C4
:104168007A69DA61FB683A691A6200BF1C37BD4692
:104178005DF8047B704780B485B000AF7860396023
:104188007B689B68FB60FB6823F07003FB603A6800
:10419800FB68134343F00703FB607B68FA689A6087
:1041A80000BF1437BD465DF8047B704780B487B004
:1041B80000AFF860B9607A603B60FB689B687B6120
:1041C8007B6923F47F437B613B681A027B681A434F
:1041D800BB6813437A6913437B61FB687A699A6009
:1041E80000BF1C37BD465DF8047B704780B487B0BC
:1041F80000AFF860B9607A60BB6803F01F03012262
:1042080002FA03F37B61FB681A6A7B69DB431A4095
:10421800FB681A62FB681A6ABB6803F01F037968B7
:1042280001FA03F31A43FB681A6200BF1C37BD4644
:104238005DF8047B7047000080B485B000AF7860FB
:1042480039607B6893F83C30012B01D1022350E0A0
:104258007B68012283F83C207B68022283F83D209A
:104268007B681B685B68FB607B681B689B68BB603E
:10427800FB6823F07003FB603B681B68FA68134314
:10428800FB607B681B68FA685A607B681B681C4A7D
:10429800934218D07B681B68B3F1804F13D07B68BA
:1042A8001B68184A93420ED07B681B68164A9342D3
:1042B80009D07B681B68154A934204D07B681B6849
:1042C800134A93420CD1BB6823F08003BB603B6860
:1042D8005B68BA681343BB607B681B68BA689A60FE
:1042E8007B68012283F83D207B68002283F83C200C
:1042F800002318461437BD465DF8047B704700BF9D
:10430800000001400004004000080040000C00408C
:104318000040014080B483B000AF786000BF0C3724
:10432800BD465DF8047B704780B483B000AF786009
:1043380000BF0C37BD465DF8047B70470244034656
:10434800934200D1704703F8011BF9E770B50D4D92
:104358000D4C641BA4100026A64209D10B4D0C4C31
:1043680000F018F8641BA4100026A64205D170BD01
:1043780055F8043B98470136EEE755F8043B984753
:104388000136F2E7D4430008D4430008D4430008B8
:10439800D8430008F8B500BFF8BC08BC9E46704773
:0C43A800F8B500BFF8BC08BC9E4670478A
:1043B40000000000000000000102030406070809D1
:0843C400000610160006101699
:0843CC0018C6FF7F010000008C
:0443D400BD0100081F
:0443D800990100083F
:1043DC00460000000024F400100000000100000062
:04000005080018BD1A
:00000001FF
